{
  "contractName": "FizzBuzz",
  "abi": [
    {
      "inputs": [],
      "stateMutability": "nonpayable",
      "type": "constructor"
    },
    {
      "anonymous": false,
      "inputs": [
        {
          "indexed": false,
          "internalType": "address",
          "name": "from",
          "type": "address"
        },
        {
          "indexed": false,
          "internalType": "uint256",
          "name": "counter",
          "type": "uint256"
        }
      ],
      "name": "Increment",
      "type": "event"
    },
    {
      "inputs": [],
      "name": "increment",
      "outputs": [],
      "stateMutability": "nonpayable",
      "type": "function"
    },
    {
      "inputs": [],
      "name": "getFizzBuzz",
      "outputs": [
        {
          "internalType": "string",
          "name": "",
          "type": "string"
        }
      ],
      "stateMutability": "view",
      "type": "function"
    }
  ],
  "bytecode": "0x608060405234801561001057600080fd5b5060008081905550610414806100276000396000f3fe608060405234801561001057600080fd5b50600436106100365760003560e01c8063a6bfa6241461003b578063d09de08a146100be575b600080fd5b6100436100c8565b6040518080602001828103825283818151815260200191508051906020019080838360005b83811015610083578082015181840152602081019050610068565b50505050905090810190601f1680156100b05780820380516001836020036101000a031916815260200191505b509250505060405180910390f35b6100c6610230565b005b6060600080541415610111576040518060400160405280600181526020017f3000000000000000000000000000000000000000000000000000000000000000815250905061022d565b600060056000548161011f57fe5b061480156101395750600060036000548161013657fe5b06145b1561017b576040518060400160405280600881526020017f46697a7a42757a7a000000000000000000000000000000000000000000000000815250905061022d565b600060036000548161018957fe5b0614156101cd576040518060400160405280600481526020017f46697a7a00000000000000000000000000000000000000000000000000000000815250905061022d565b60006005600054816101db57fe5b06141561021f576040518060400160405280600481526020017f42757a7a00000000000000000000000000000000000000000000000000000000815250905061022d565b61022a60005461029a565b90505b90565b60008081548092919060010191905055507fb182275171042022ff972a26edbd0171bccc74463bd22e56dbbeba4e93b7a66833600054604051808373ffffffffffffffffffffffffffffffffffffffff1681526020018281526020019250505060405180910390a1565b606060008214156102e2576040518060400160405280600181526020017f300000000000000000000000000000000000000000000000000000000000000081525090506103d9565b600082905060005b6000821461030c578080600101915050600a828161030457fe5b0491506102ea565b60008167ffffffffffffffff8111801561032557600080fd5b506040519080825280601f01601f1916602001820160405280156103585781602001600182028036833780820191505090505b50905060006001830390505b600086146103d157600a868161037657fe5b0660300160f81b8282806001900393508151811061039057fe5b60200101907effffffffffffffffffffffffffffffffffffffffffffffffffffffffffffff1916908160001a905350600a86816103c957fe5b049550610364565b819450505050505b91905056fea2646970667358221220976be324a703ae6ad30fe2bcc7dcff5cb2e21c4360e80b575d7cf9344d800df064736f6c63430007060033",
  "immutableReferences": {},
  "source": "// SPDX-License-Identifier: MIT\npragma solidity ^0.7.0;\n\ncontract FizzBuzz {\n    uint256 counter;\n\n    constructor() {\n        counter = 0;\n    }\n\n    function increment() public {\n        counter++;\n        emit Increment(msg.sender, counter);\n    }\n\n    function getFizzBuzz() public view returns (string memory) {\n        if (counter == 0) return \"0\";\n        if (counter % 5 == 0 && counter % 3 == 0) return \"FizzBuzz\";\n        if (counter % 3 == 0) return \"Fizz\";\n        if (counter % 5 == 0) return \"Buzz\";\n        return uint2str(counter);\n    }\n\n    function uint2str(uint256 _i)\n        internal\n        pure\n        returns (string memory _uintAsString)\n    {\n        if (_i == 0) {\n            return \"0\";\n        }\n        uint256 j = _i;\n        uint256 len;\n        while (j != 0) {\n            len++;\n            j /= 10;\n        }\n        bytes memory bstr = new bytes(len);\n        uint256 k = len - 1;\n        while (_i != 0) {\n            bstr[k--] = bytes1(uint8(48 + (_i % 10)));\n            _i /= 10;\n        }\n        return string(bstr);\n    }\n\n    event Increment(address from, uint counter);\n}\n",
  "sourcePath": "/Users/hitsuji-haneta/dev/lastrust/job-interview/solidity/fizzbuzz/contracts/FizzBuzz.sol",
  "compiler": {
    "name": "solc",
    "version": "0.7.6+commit.7338295f.Emscripten.clang"
  },
  "schemaVersion": "3.3.4",
  "updatedAt": "2021-05-20T13:49:23.932Z",
  "devdoc": {
    "kind": "dev",
    "methods": {},
    "version": 1
  },
  "userdoc": {
    "kind": "user",
    "methods": {},
    "version": 1
  }
}